:0C0000000C9437000C9400000C940000DD
:10000C000C9400000C9400000C9400000C94000064
:10001C000C9400000C9400000C9400000C94000054
:10002C000C9400000C9400000C9400000C94000044
:10003C000C9400000C9400000C9400000C94000034
:10004C000C9400000C9400000000FF0080C0020023
:10005C000600540001006401560002006A015800B9
:10006C000000F894EE27ECBBF1E0FBBFEBBFE5BF63
:10007C008DE0A2E0BB27ED938A95E9F780E094E050
:10008C00A0E6ED930197E9F7EAE5F0E0859195910B
:10009C00009761F0A591B59105901590BF01F00105
:1000AC0005900D920197E1F7FB01F0CFEFE5EDBF65
:1000BC00E4E0EEBFC0E6D1E00C943C03AA93E881E7
:1000CC00E064E7B98BE18A95F1F7369A349BFECF61
:1000DC00349AE4B1F5B121960895AA931A930E942B
:1000EC00C105A0EC0E94F505A9810E94F5050E94AE
:1000FC00C105A1EC0E94F505A0E00E94DA051E2FB7
:10010C000E94D005E12F188122960895BA93AA93E4
:10011C00E881F9810E94CC04E883F983EA81FB81B0
:10012C000E94CC04EA83FB83EE81FF810E94CC0405
:10013C00EE83FF83EC81FD810E94CC04EC83FD8374
:10014C00AE81BF81A030E1E0BE0724F0EFEFF0E01C
:10015C00EE83FF83AC81BD81A030E1E0BE0724F0CB
:10016C00EFEFF0E0EC83FD83A881B981A030E1E0F2
:10017C00BE0724F0EFEFF0E0E883F983AA81BB819E
:10018C00A030E1E0BE0724F0EFEFF0E0EA83FB8360
:10019C00AE81BF81A130EFEFBE0724F4E1E0FFEFA9
:1001AC00EE83FF83AC81BD81A130EFEFBE0724F459
:1001BC00E1E0FFEFEC83FD83A881B981A130EFEF83
:1001CC00BE0724F4E1E0FFEFE883F983AA81BB8149
:1001DC00A130EFEFBE0724F4E1E0FFEFEA83FB83ED
:1001EC00A981AA2322F0C29AC498E88107C0A981E8
:1001FC00AA232AF4C298C49AE881E195ECBFAB819A
:10020C00AA232AF0909A9198EA81FB8109C0AB81CC
:10021C00AA2342F49098919AEA81FB810E941706D6
:10022C00F9BDE8BDAD81AA232AF0929A9398EC818E
:10023C00FD8109C0AD81AA2342F49298939AEC8176
:10024C00FD810E941706FBBDEABDAF81AA2322F0F7
:10025C00969AAB98EE8107C0AF81AA232AF49698A0
:10026C00AB9AEE81E195E3BD28960895EFEFF3E0AC
:10027C002F0166247724E0E1F0E06E167F0694F5FA
:10028C00D301E8E0F0E00E94D10411F4C79801C05A
:10029C00C79AD301E4E0F0E00E94D10411F4C698AF
:1002AC0001C0C69AD301E2E0F0E00E94D10411F43F
:1002BC00DF9801C0DF9AF301A1E0B0E00E944E0686
:1002CC00E03011F4DE9801C0DE9AA0E0F7DEE41510
:1002DC00F50520F44301A0E0F1DE2F01F301319686
:1002EC003F01C9CFE0E00E94D904D4010E94DC0494
:1002FC00D4010E94E804ADE30E948104D201E8EE2F
:10030C00F3E00E94EF04D2010E94F304D2010E9498
:10031C00DC04D2010E94E8040895A1E0DEDEF0E0E6
:10032C00A0916801B0916901EA1BFB0B0E94F604D5
:10033C00A0916701AA2322F40E94FB040E94F604F8
:10034C000E940005A138E0E0BE0734F00E94FB04D7
:10035C00EF5FF0400E94F6040E940005A038EFEF1A
:10036C00BE0734F40E94FB04E150FF4F0E94F604D8
:10037C00A0916701AA238AF0E8E00E94D904ABE2BD
:10038C000E9481040E9400050E94F3040E94000553
:10039C000E94DC040E94000514C0A0916701AA23EE
:1003AC00C2F4E8E00E94D904ADE20E9481040E94EC
:1003BC0005050E94F3040E9405050E94DC040E94BE
:1003CC000505EAE0F0E00E944006E05DAE2F0E94D9
:1003DC0081040E94FB040E94CC040E94F604A5E058
:1003EC006DDEE0936001F0936101E0E00E940A058C
:1003FC000E940D050E94F3040E940D050E94DC046E
:10040C000E940D050E94E804A4E058DE6F01E4E0B0
:10041C000E940A05D6010E94F304D6010E94DC0456
:10042C00D6010E94E804A3E049DE5F01E8E00E94E7
:10043C000A05D5010E94F304D5010E94DC04D50104
:10044C000E94E804F501EC19FD09E0936201F093B8
:10045C0063010895ECE2F1E04E165F060CF0FCC06F
:10046C00082C092829F40E9412050E941C05E8C0DA
:10047C00E1E0F0E0E815F90569F40E9412050E942C
:10048C00FB0430960E941C05FA93EA930E94000527
:10049C001096E0C0E2E0F0E0E815F90569F40E947E
:1004AC0028050E942D050E941C050E9435050E94FE
:1004BC002D050E943F05CCC0E3E0F0E0E815F905FE
:1004CC0029F40E9443050E944705C2C0E4E0F0E015
:1004DC00E815F90559F40E944D05BF01DF010E9492
:1004EC002D050E9454050E943F05B2C0E5E0F0E0E6
:1004FC00E815F90559F40E944D050E945E050E940D
:10050C0064050E94FB040E942805A2C0E6E0F0E00E
:10051C00E815F90569F40E944D050F010E945E056E
:10052C00D0010E942D050E9464050E9467058CC0B5
:10053C00E7E0F0E0E815F90551F40E944D050E9442
:10054C005E050E946D050E940005109683C0E8E0D0
:10055C00F0E0E815F90569F40E944D05BF010E9411
:10056C005E050E9470050E946405DB010E94720505
:10057C006BC0E9E0F0E0E815F90529F40E944305A9
:10058C000E94470565C0EAE0F0E0E815F90559F46A
:10059C000E944D05BF01DF010E942D050E945405EC
:1005AC000E943F0555C0EBE0F0E0E815F90559F461
:1005BC000E944D050E945E050E9464050E94FB048A
:1005CC000E94280545C0ECE0F0E0E815F90569F457
:1005DC000E944D050F010E945E05D0010E942D0561
:1005EC000E9464050E9467052FC0EDE0F0E0E8155D
:1005FC00F90551F40E944D050E945E050E946D059F
:10060C000E940005109626C0EEE0F0E0E815F90512
:10061C0069F40E944D05BF010E945E050E947005A1
:10062C000E946405DB010E9472050EC0EFE0F0E051
:10063C00E815F90581F40E946D050E94FB043096C3
:10064C00FA93EA930E944D05A0916601B09167015F
:10065C00AE0FBF1F5BDD09C00E9477050E947705B6
:10066C000E9477050E94000551DD0895E0ECEABB7D
:10067C00E0E0EBBBEFEFE7BBE0E0E8BBE8E0E4BBBE
:10068C00E0E0E5BBEFEFE1BBE0E0E2BBEBE6E3BFB4
:10069C00E0E0E2BFECBFE1EAEFBDEBE0EEBDE0E095
:1006AC00EDBDECBDE7BDE6BDEBBDEABDE9BDE8BD0A
:1006BC00E2BDECE6E5BDE0E0E4BDE3BDE9BFE5BFCE
:1006CC00E4BFEAB9E0E8E8B9E0E4E7B9E3E8E6B9A1
:1006DC00E0E0E0BFEDB9E6BF0E94BC05A0E12AD185
:1006EC00A8EBBBE00E940D06A1E0F7DCF0E0E09384
:1006FC006801F09369010E947B05ECE2F1E04E1673
:10070C005F060CF08CC083D1AB3FE0E0BE0764F118
:10071C000E947B057CD1A139E1E0BE077CF00E94F0
:10072C007005FA93EA93FA93EA93B1D1DF018FD172
:10073C0096D10E9472050E947F0514C0E4E0F0E09F
:10074C008E169F062CF0ECE0F0E0E815F90514F499
:10075C0081DE09C00E9483050E9483050E948305E7
:10076C00A0E0B0E0D3DCCFCFEAEFF0E0EC15FD0574
:10077C0044F5BBD1E0E9F1E0EC15FD0574F487D14B
:10078C00DF01AAD1BF0194D1A5D1FA93EA93A2D1EA
:10079C00FA93EA93FB01ADD112C0E8E0F0E0E81562
:1007AC00F9052CF4EFE0F0E0E815F9050CF402C0C3
:1007BC0051DE06C0A2D1A1D1A0D1A0E0B0E0A6DC50
:1007CC00D3CFEAEFF0E0EA15FB053CF58ED1E0E97A
:1007DC00F1E0EA15FB0574F474D1BF010BD1EA0FFB
:1007EC00FB1F3DD134D13BD132D1FA93EA93FB01BB
:1007FC0080D111C00024081409042CF4E8E0F0E0C6
:10080C008E169F060CF002C025DE06C076D175D17F
:10081C0074D1A0E0B0E07ADCD4CF1CDE2DC0F7D0D0
:10082C00A83CE0E0BE076CF46DD142D173D1EA1B59
:10083C00FB0B3ED16FD175D177D1EA0FFB1FDAD00C
:10084C0018C0E5D0A139E1E0BE075CF06DD169D1EB
:10085C0061D167D15FD1EA1BFB0B2AD153D1CAD02E
:10086C0008C06BD1EA0FFB1FFA93EA936CD16BD1E2
:10087C0064D1AE0FBF1F4ADC3ECFFFCFAA93E5B3C6
:10088C00EF70AE2FE881E07FEA2BE5BB8DE08A9517
:10089C00F1F7AA9A8DE08A95F1F7AA988DE08A95DE
:1008AC00F1F772C0AA93A881E9DFE881E295E883A9
:1008BC00A881E4DF85E88A95F1F766C0AA93E88100
:1008CC00F0E0E659FE4FE081A981AE0FEBDFE98144
:1008DC00E0936E01E881E0936F0122960895A2E007
:1008EC0039D1ACE0DFDFA1E035D1E0E0E0936F017E
:1008FC00E0936E010895AA93A881AA3031F0E0919B
:10090C007001A0916E01AE1758F0E0E0EA93A0914F
:10091C006F01AF5FA0936F01D1DFA881AA30A1F165
:10092C00E0916E01EF5FE0936E01A89AA881BADFA7
:10093C00A8982AC0AA93E4B3E06FE4BBA29AA09A49
:10094C00A19AAA98A898A998E881E0937001E05818
:10095C00E0936C01E881E054E0936D01A4E1B0E018
:10096C000E940D06FCD0FBD0FAD0A0E287DF88EC09
:10097C0090E00197F1F7A8E295DFA4E093DFA5E8FA
:10098C0091DFA6E08FDFABDF21960895AFEFBFEFCD
:10099C000E94230608950E943B06A1E0B0E00E944D
:1009AC004E06E0300895EA93A0E088CFEAE0F0E04C
:1009BC000E943B06DF01EAE0F0E00E944006E05DA9
:1009CC00AE2F99CFEAE0F0E00E944006E05DAE2F3A
:1009DC0092CF0E943B06DF01F5CFE4E6F0E0F9CFC1
:1009EC00E0936601F09367010895E0916601F09140
:1009FC0067010895A0916601B09167010895F5DF34
:100A0C000E941706DF010895EA93A1E057CFA09149
:100A1C006001B09161010895E8DFA0916401B0918B
:100A2C006501EA0FFB1FFA93EA930895FA93EA9390
:100A3C00E0916401F09165010E941706DBDFEA0F7B
:100A4C00FB1F0895A0916401B09165010895E2E047
:100A5C00F0E00E943B06CEDFEA0FFB1F0895FA93ED
:100A6C00EA93E0916401F09165010E941706DF01A1
:100A7C000895FA93EA93B9DFE5CFB7DF30960F010B
:100A8C00D5CFFA93EA931A920A92AFDFDBCFE091BB
:100A9C006401F09165010E9417060895FA93EA9398
:100AAC00FB01A8DFEA0FFB1FFA93EA93CBDFCFCF52
:100ABC00A1DFEA0FFB1FFA93EA930895FA93EA93E6
:100ACC00ABCFC0DFE2E0F0E00E943B0608958DDF83
:100ADC003096F4CFB7DFBBCFE2E0F0E00E943B06EC
:100AEC00089583DFFA93EA9308950E943C010C94D5
:100AFC00930180DFAE0FBF1F0895E0E0F0E0FA93A2
:100B0C00EA9308959FDFE0916201F0916301EA1B83
:100B1C00FB0B0895E0916201F09163010E941706AE
:100B2C0091CFEA0FFB1FC4CFE0916401F0916501F6
:100B3C00A0916201B0916301089557DFA091620109
:100B4C00B09163010895E0916201F09163010E94FC
:100B5C001706AECFA7DEA3E0B0E00C940D06A0E321
:100B6C008DDE88EC90E00197F1F70895C098C1985C
:100B7C00B89AB99815C0B998B898EE270000B19BEF
:100B8C000895B09B089504D0B99A02D0B89AE1E0C8
:100B9C006DE007C0B99AB89A03D0B898F9DFB99844
:100BAC006BE16A95F1F7089578E0B898F1DFB09BA6
:100BBC00FECFEEDF8894B1990894B89AF1DFEE1F5E
:100BCC007A9599F77A2F772311F4B99801C0B99ACD
:100BDC00DFDFB898E5DFB89ADBDFB998D9CF78E0DA
:100BEC00AA0F10F4B99801C0B99ADADFB898D0DF1F
:100BFC00B09BFECFCDDFB89A7A9591F7B998C8DF44
:100C0C00B898CEDFE1E0B199EE27B89AC1CF109633
:100C1C0039F080ED97E00197F1F7A8951197C9F796
:100C2C000895F195E195F0400895FA9FF02DEB9F12
:100C3C00F00DEA9FE02DF10D089534D0F6DF0EF49F
:100C4C00F0DF08950024112490E1AA0FBB1F001CB3
:100C5C00111C0E1A1F0A18F40E0E1F1E01C0A160E3
:100C6C009A9599F7FD01D00108951CD0EBDF0EF495
:100C7C00D8DF0895E894B7FF04C0A095B0951196FD
:100C8C006894F7FDCEDFDEDFFD010EF4CADF0895B8
:100C9C00E894F7FF02C0C5DF6894EA23FB230EF447
:100CAC00C0DF0895E894F7FF02C0BBDF6894B7FF7C
:100CBC0006C0A095B095119600F8039400FA08951B
:00000001FF
