:0A0000000C9437000C9400000C94DF
:10000A0000000C9400000C9400000C9400000C9466
:10001A0000000C9400000C9400000C9400000C9456
:10002A0000000C9400000C9400000C9400000C9446
:10003A0000000C9400000C9400000C9400000C9436
:10004A0000000C9400000C9400000000B40080C072
:10005A0002000600540001006401560002006A0111
:10006A0058000000F894EE27ECBBF1E0FBBFEBBFB1
:10007A00E5BF8DE0A2E0BB27ED938A95E9F780E022
:10008A0094E0A0E6ED930197E9F7EAE5F0E08591BF
:10009A009591009761F0A591B59105901590BF01D2
:1000AA00F00105900D920197E1F7FB01F0CFEFE522
:1000BA00EDBFE4E0EEBFC0E6D1E00C94D303AA930F
:1000CA00E881E064E7B98BE18A95F1F7369A349BC7
:1000DA00FECF349AE4B1F5B121960895AA931A9302
:1000EA000E942006A0EC0E945406A9810E94540690
:1000FA000E942006A1EC0E945406A0E00E94390644
:10010A001E2F0E942F06E12F188122960895BA9376
:10011A00AA93E881F9810E941C05E883F983EA81A0
:10012A00FB810E941C05EA83FB83EE81FF810E940A
:10013A001C05EE83FF83EC81FD810E941C05EC8384
:10014A00FD83AE81BF81A030E1E0BE0724F0EFEF6E
:10015A00F0E0EE83FF83AC81BD81A030E1E0BE0711
:10016A0024F0EFEFF0E0EC83FD83A881B981A030A1
:10017A00E1E0BE0724F0EFEFF0E0E883F983AA811B
:10018A00BB81A030E1E0BE0724F0EFEFF0E0EA83A4
:10019A00FB83AE81BF81A130EFEFBE0724F4E1E01B
:1001AA00FFEFEE83FF83AC81BD81A130EFEFBE0785
:1001BA0024F4E1E0FFEFEC83FD83A881B981A1304B
:1001CA00EFEFBE0724F4E1E0FFEFE883F983AA81A9
:1001DA00BB81A130EFEFBE0724F4E1E0FFEFEA8331
:1001EA00FB83A981AA2322F0C29AC498E88107C096
:1001FA00A981AA232AF4C298C49AE881E195ECBF9E
:10020A00AB81AA232AF0909A9198EA81FB8109C0CE
:10021A00AB81AA2342F49098919AEA81FB810E94C9
:10022A007606F9BDE8BDAD81AA232AF0929A939881
:10023A00EC81FD8109C0AD81AA2342F49298939A78
:10024A00EC81FD810E947606FBBDEABDAF81AA233F
:10025A0022F0969AAB98EE8107C0AF81AA232AF4BE
:10026A009698AB9AEE81E195E3BD28960895EFEF53
:10027A00F3E02F0166247724E0E1F0E06E167F06B2
:10028A0094F5D301E8E0F0E00E94210511F4C79843
:10029A0001C0C79AD301E4E0F0E00E94210511F4FD
:1002AA00C69801C0C69AD301E2E0F0E00E94210597
:1002BA0011F4DF9801C0DF9AF301A1E0B0E00E94D7
:1002CA00AD06E03011F4DE9801C0DE9AA0E0F7DE58
:1002DA00E415F50520F44301A0E0F1DE2F01F30156
:1002EA0031963F01C9CFE0E00E942905D4010E945E
:1002FA002C05D4010E943805ADE30E94D104D20135
:10030A00E8EEF3E00E943F05D2010E944305D201C4
:10031A000E942C05D2010E9438050895A1E0DEDE74
:10032A00F0E0A0916801B0916901EA1BFB0B0E9401
:10033A004605A0916701AA2322F40E944B050E9458
:10034A0046050E945005A138E0E0BE0734F00E943D
:10035A004B05EF5FF0400E9446050E945005A03809
:10036A00EFEFBE0734F40E944B05E150FF4F0E94A5
:10037A004605A0916701AA238AF0E8E00E942905B0
:10038A00ABE20E94D1040E9450050E9443050E94DC
:10039A0050050E942C050E94500514C0A0916701C7
:1003AA00AA23C2F4E8E00E942905ADE20E94D10422
:1003BA000E9455050E9443050E9455050E942C057E
:1003CA000E945505EAE0F0E00E949F06E05DAE2F2C
:1003DA000E94D1040E944B050E941C050E944605FA
:1003EA00A5E06DDEE0936001F0936101E0E00E9418
:1003FA005A050E945D050E9443050E945D050E9400
:10040A002C050E945D050E943805A4E058DE6F01A4
:10041A00E4E00E945A05D6010E944305D6010E94D3
:10042A002C05D6010E943805A3E049DE5F01E8E009
:10043A000E945A05D5010E944305D5010E942C0548
:10044A00D5010E943805F501EC19FD09E093620116
:10045A00F09363010895ECE2F1E04E165F060CF0AA
:10046A00F4C0082C092829F40E9462050E946C0530
:10047A00E0C0E1E0F0E0E815F90559F40E946205F0
:10048A000E944B0530960E946C050E9478051096D2
:10049A00DAC0E2E0F0E0E815F90569F40E947B05AC
:1004AA000E9480050E946C050E9488050E948005B2
:1004BA000E949205C6C0E3E0F0E0E815F90529F4C8
:1004CA000E9496050E949A05BCC0E4E0F0E0E81597
:1004DA00F90559F40E94A005BF01DF010E948005B9
:1004EA000E94A7050E949205ACC0E5E0F0E0E8157D
:1004FA00F90549F40E94A0050E94B1050E94B705BA
:10050A000E94BA059EC0E6E0F0E0E815F90569F434
:10051A000E94A0050F010E94B105D0010E9480052A
:10052A000E94B7050E94BC0588C0E7E0F0E0E81524
:10053A00F90551F40E94A0050E94B1050E94C20566
:10054A000E94500510967FC0E8E0F0E0E815F90532
:10055A0069F40E94A005BF010E94B1050E94C50569
:10056A000E94B705DB010E94C70567C0E9E0F0E019
:10057A00E815F90529F40E9496050E949A0561C0BA
:10058A00EAE0F0E0E815F90559F40E94A005BF0178
:10059A00DF010E9480050E94A7050E94920551C0B2
:1005AA00EBE0F0E0E815F90549F40E94A0050E9485
:1005BA00B1050E94B7050E94BA0543C00E94CC0546
:1005CA0069F40E94A0050F010E94B105D0010E94A2
:1005DA0080050E94B7050E94BC052FC0EDE0F0E03F
:1005EA00E815F90551F40E94A0050E94B1050E9480
:1005FA00C2050E945005109626C0EEE0F0E0E8150C
:10060A00F90569F40E94A005BF010E94B1050E9484
:10061A00C5050E94B705DB010E94C7050EC0EFE0C1
:10062A00F0E0E815F90581F40E94C2050E944B0525
:10063A003096FA93EA930E94A005A0916601B091C0
:10064A006701AE0FBF1F63DD09C00E94D1050E947A
:10065A00D1050E944B050E94780559DD08950E9434
:10066A005D05AB3FE0E0BE075CF10E94D5050E9444
:10067A00D90594F00E94C505FA93EA93FA93EA938E
:10068A000E94A005DF010E9480050E9488050E9441
:10069A00C7050E94DE0512C0E4E0F0E08E169F0650
:1006AA001CF00E94CC0514F4D6DE09C00E94E205B3
:1006BA000E94E2050E94E205A0E0B0E028DDCFCF6B
:1006CA00EAEFF0E0EC15FD0594F50E94D505E0E9A6
:1006DA00F1E0EC15FD05A4F40E94A005DF010E94DB
:1006EA00C705BF010E94B1050E94C505FA93EA93A6
:1006FA000E94C505FA93EA93FB010E94DE0515C024
:10070A00E8E0F0E0E815F9052CF4EFE0F0E0E81590
:10071A00F9050CF402C09FDE09C00E94E2050E949E
:10072A00E2050E94E205A0E0B0E0F1DCC9CFEAEF01
:10073A00F0E0EA15FB058CF50E94D505E0E9F1E049
:10074A00EA15FB05A4F40E94BC05BF01A4D1EA0F77
:10075A00FB1F0E9488050E9480050E9488050E944E
:10076A008005FA93EA93FB010E94DE0514C0002477
:10077A00081409042CF4E8E0F0E08E169F060CF049
:10078A0002C069DE09C00E94E2050E94E2050E94D9
:10079A00E205A0E0B0E0BBDCCACF0895E0ECEABB1A
:1007AA00E0E0EBBBEFEFE7BBE0E0E8BBE8E0E4BB8F
:1007BA00E0E0E5BBEFEFE1BBE0E0E2BBEBE6E3BF85
:1007CA00E0E0E2BFECBFE1EAEFBDEBE0EEBDE0E066
:1007DA00EDBDECBDE7BDE6BDEBBDEABDE9BDE8BDDB
:1007EA00E2BDECE6E5BDE0E0E4BDE3BDE9BFE5BF9F
:1007FA00E4BFEAB9E0E8E8B9E0E4E7B9E3E8E6B972
:10080A00E0E0E0BFEDB9E6BF0E941B06A0E1E3D03D
:10081A00A8EBBBE00E946C06A1E060DCF0E0E0938C
:10082A006801F0936901BCD1E0E2F3E04E165F067D
:10083A000CF049C014DF3CD1AC38E0E0BE0744F408
:10084A007AD18AD18FD191D1AE0FBF1F60DC3AC065
:10085A00ABD144F032D13BD1FA93EA936CD1A9D10E
:10086A0056DC30C0082C092831F496D195D10ED126
:10087A003AD14DDC27C00024081409042CF4E5E021
:10088A00F0E08E169F060CF00BC017D154D103D19D
:10089A00EA0FFB1F1CD141D1AE0FBF1F38DC12C0BB
:1008AA0076D12CF4E0E1F0E08E169F060CF009C038
:1008BA0042D10F0151D101D100D1F0017AD127DC07
:1008CA0001C0C9DD2AC0F4D0A83CE0E0BE076CF440
:1008DA0079D142D17FD1EA1BFB0B3ED17BD181D1A9
:1008EA0083D1EA0FFB1FD7D015C05ED15CF07CD153
:1008FA0078D170D176D16ED1EA1BFB0B2DD162D1A2
:10090A00CAD008C07AD1EA0FFB1FFA93EA937BD1C7
:10091A007AD173D1AE0FBF1FFADB85CFFFCFAA936F
:10092A00E5B3EF70AE2FE881E07FEA2BE5BB8DE0FF
:10093A008A95F1F7AA9A8DE08A95F1F7AA988DE03F
:10094A008A95F1F772C0AA93A881E9DFE881E29556
:10095A00E883A881E4DF85E88A95F1F766C0AA935F
:10096A00E881F0E0E659FE4FE081A981AE0FEBDFA6
:10097A00E981E0936E01E881E0936F012296089580
:10098A00A2E048D1ACE0DFDFA1E044D1E0E0E093AF
:10099A006F01E0936E010895AA93A881AA3031F0FD
:1009AA00E0917001A0916E01AE1758F0E0E0EA9371
:1009BA00A0916F01AF5FA0936F01D1DFA881AA3028
:1009CA00A1F1E0916E01EF5FE0936E01A89AA88110
:1009DA00BADFA8982AC0AA93E4B3E06FE4BBA29A4C
:1009EA00A09AA19AAA98A898A998E881E093700178
:1009FA00E058E0936C01E881E054E0936D01A4E1D2
:100A0A00B0E00E946C060BD10AD109D1A0E287DFBF
:100A1A0088EC90E00197F1F7A8E295DFA4E093DF74
:100A2A00A5E891DFA6E08FDFABDF21960895AFEF4F
:100A3A00BFEF0E94820608950E949A06A1E0B0E0E4
:100A4A000E94AD06E0300895EA93A0E088CFEAE07C
:100A5A00F0E00E949A06DF01EAE0F0E00E949F06B9
:100A6A00E05DAE2F99CFEAE0F0E00E949F06E05DDC
:100A7A00AE2F92CF0E949A06DF01F5CFE4E6F0E0AE
:100A8A00F9CFE0936601F09367010895E09166015A
:100A9A00F09167010895A0916601B09167010895E8
:100AAA00F5DF0E947606DF010895EA93A1E057CFA9
:100ABA00A0916001B09161010895E8DFA0916401FD
:100ACA00B0916501EA0FFB1FFA93EA930895FA932E
:100ADA00EA93E0916401F09165010E947606DBDFFA
:100AEA00EA0FFB1F0895FA93EA93D5CFA091640108
:100AFA00B09165010895E2E0F0E00E949A06CBDF2A
:100B0A00EA0FFB1F0895FA93EA93E0916401F091CA
:100B1A0065010E947606DF010895FA93EA93B6DF2B
:100B2A00E5CFB4DF30960F01D2CFFA93EA931A9247
:100B3A000A92ACDFDBCFE0916401F09165010E947B
:100B4A0076060895FA93EA93FB01A5DFEA0FFB1FE5
:100B5A00FA93EA93CBDFCFCF9EDFEA0FFB1FFA931C
:100B6A00EA930895FA93EA93A8CF90DFBFCFBEDF46
:100B7A00E2E0F0E00E949A06089588DF3096F2CF0C
:100B8A00B5DFB9CFE2E0F0E00E949A060895ECE002
:100B9A00F0E0E815F905089579DFFA93EA930895E4
:100BAA000E943C010C94930183DFA139E1E0BE0766
:100BBA00089571DFAE0FBF1F0895E0E0F0E0FA93E9
:100BCA00EA93089593DFE0916201F0916301EA1BD1
:100BDA00FB0B0895E0916201F09163010E94760691
:100BEA0085CFEA0FFB1FB8CFE0916401F091650150
:100BFA00A0916201B0916301089548DFA09162015A
:100C0A00B09163010895E0916201F09163010E943D
:100C1A007606A2CF98DEA3E0B0E00C946C06A0E3BF
:100C2A007EDE88EC90E00197F1F70895C098C198AC
:100C3A00B89AB99815C0B998B898EE270000B19B30
:100C4A000895B09B089504D0B99A02D0B89AE1E009
:100C5A006DE007C0B99AB89A03D0B898F9DFB99885
:100C6A006BE16A95F1F7089578E0B898F1DFB09BE7
:100C7A00FECFEEDF8894B1990894B89AF1DFEE1F9F
:100C8A007A9599F77A2F772311F4B99801C0B99A0E
:100C9A00DFDFB898E5DFB89ADBDFB998D9CF78E01B
:100CAA00AA0F10F4B99801C0B99ADADFB898D0DF60
:100CBA00B09BFECFCDDFB89A7A9591F7B998C8DF85
:100CCA00B898CEDFE1E0B199EE27B89AC1CF109675
:100CDA0039F080ED97E00197F1F7A8951197C9F7D8
:100CEA000895F195E195F0400895FA9FF02DEB9F54
:100CFA00F00DEA9FE02DF10D089534D0F6DF0EF4E1
:100D0A00F0DF08950024112490E1AA0FBB1F001CF4
:100D1A00111C0E1A1F0A18F40E0E1F1E01C0A16024
:100D2A009A9599F7FD01D00108951CD0EBDF0EF4D6
:100D3A00D8DF0895E894B7FF04C0A095B09511963E
:100D4A006894F7FDCEDFDEDFFD010EF4CADF0895F9
:100D5A00E894F7FF02C0C5DF6894EA23FB230EF488
:100D6A00C0DF0895E894F7FF02C0BBDF6894B7FFBD
:100D7A0006C0A095B095119600F8039400FA08955C
:00000001FF
